:100000000C942A000C9434000C9434000C943400AA
:100010000C9434000C9434000C9434000C94340090
:100020000C9434000C9434000C9434000C94340080
:100030000C9434000C9434000C9434000C94340070
:100040000C9434000C9434000C9434000C94340060
:100050000C94340011241FBECFE5D8E0DEBFCDBF25
:100060000E9441000C9454000C94000088E18AB96D
:1000700086E880BD83E389B908955D9BFECF8CB986
:1000800008950E943600B898C09AB099FECF81E4D6
:100090000E943D002FEF82E597E021508040904084
:0C00A000E1F700C00000F1CFF894FFCFA2
:00000001FF
